S01700006E726632344C303141746D656761342E7372656331
S11300000C942A000C9476040C9447000C9447003A
S11300100C9447000C9447000C9447000C94470040
S11300200C9447000C9447000C9447000C94470030
S11300300C9447000C9447000C9447000C94470020
S11300400C9447000C9447000C9447000C94470010
S11300500C94470011241FBECFE5D4E0DEBFCDBF12
S113006010E0A0E6B0E0EEEBFEE002C005900D92D9
S1130070A238B107D9F720E0A2E8B0E001C01D9290
S1130080A33AB207E1F70E94A8030C945D070C940D
S113009000008F929F92AF92BF92DF92EF92FF92F5
S11300A00F931F93CF93DF9300D000D01F92CDB74F
S11300B0DEB7D82EE92E8E010F5F1F4F85E0F801C1
S11300C011928A95E9F71092A200A898A09AFFEFDE
S11300D029EF30E0F15020403040E1F700C000004B
S11300E0A89AA0988DE3989B0DC09AE09A95F1F791
S11300F000C08150C1F78AE690E00E94BB0184E011
S11301008093A2008091A200811148C0989BFECFE9
S11301109899FECF90E0812C912C5401839424E093
S1130120F22E87E024E298990EC0EAE0EA95F1F70E
S113013000C02150C1F78FE690E00E94BB01F0920D
S1130140A2008FEF95E02091A200211121C0FAEBCB
S1130150FA95F1F700C0989B10C0F801E90FF11D62
S11301602081B501A401082E04C0440F551F661F49
S1130170771F0A94D2F7422B408323E3989B08C04D
S11301803AE03A95F1F700C02150C1F7F092A2008D
S1130190815087FFC7CF9F5F953018F28091A200EE
S11301A0811118C099818A81890F9B81890F9C8153
S11301B0890F9D81891721F083E08093A2000AC0F2
S11301C0F801AD2DBE2DCE01059621912D93E81792
S11301D0F907D9F70F900F900F900F900F90DF91C0
S11301E0CF911F910F91FF90EF90DF90BF90AF9050
S11301F09F908F9008958F929F92AF92BF92CF92CB
S1130200DF92EF92FF920F931F93CF93DF9300D06F
S113021000D0CDB7DEB78C017B0119821A821B8214
S11302201C82CE0101960E9449008091A200811196
S113023072C08C816B817C817627672776279B81AE
S113024097FF0FC09F77682F70E0792B072E000C63
S1130250880B990B0E94E30520E030E040E251EC6A
S11302600AC0072E000C880B990B0E94E30520E0BE
S113027030E040E251E40E943905F8016083718363
S11302808283938369817A81762767277627072E6D
S1130290000C880B990B0E94E30520E030E040E25B
S11302A051E40E9439054B015C01F70160837183BD
S11302B082839383F801C080D180E280F38020E0C0
S11302C030E040E252ECC701B6010E94340587FDDC
S11302D00AC020E030E040EA52E4C701B6010E94BF
S11302E0EB06181614F482E014C020E030E0A901F3
S11302F0C501B4010E94340587FD0AC020E030E046
S113030048EC52E4C501B4010E94EB0618161CF433
S113031081E08093A2000F900F900F900F90DF91D7
S1130320CF911F910F91FF90EF90DF90CF90BF90EE
S1130330AF909F908F90089587B3886B87BBBE98CA
S11303408DB180658DB9C49AC39808958FB9779B90
S1130350FECF8FB10895899A889810BC87E689B931
S11303608AB188618AB980B5866880BD08955D9B2D
S1130370FECF8CB90895CF93DF93EC018991882344
S113038019F00E94B701FACFDF91CF9108958A98AE
S11303908BB780648BBF85B7826085BF78940895DE
S11303A0CF92DF92EF92FF920F931F93CF93DF933D
S11303B0D82FC62F7A01C22EF894813029F4603ADE
S11303C019F0613E09F0C05E85E38A95F1F70000FB
S11303D0C498E5E3EA95F1F700008C2F0E94A6018A
S11303E0F5E3FA95F1F70000870182E8E82E80E052
S11303F0F82ED12CC701825890408C159D05C4F469
S1130400D11108C0C03A31F08FEF0E94A601F70164
S1130410808304C0F80180810E94A601F5E3FA9567
S1130420F1F700008FEFE81AF80A0F5F1F4FE2CFD1
S1130430C49A789482E890E0DF91CF911F910F9154
S1130440FF90EF90DF90CF900895BF92CF92DF920C
S1130450EF92FF920F931F93CF93DF9300D000D0BE
S11304601F92CDB7DEB7182F6B017A01B22E2FEF92
S113047081EE94E0215080409040E1F700C00000FC
S113048001E0010F098321E0AE014F5F5F4F61E09E
S113049081E00E94D0018FE2898321E0AE014F5FA9
S11304A05F4F64E081E00E94D001098321E0AE0146
S11304B04F5F5F4F62E081E00E94D00183E0898357
S11304C021E0AE014F5F5F4F63E081E00E94D00105
S11304D08CE6898321E0AE014F5F5F4F65E081E0E8
S11304E00E94D00187E0898321E0AE014F5F5F4F16
S11304F066E081E00E94D00185E08983123009F42E
S113050043C0B8F4112371F1113009F075C025E02E
S1130510A6016BE081E00E94D00125E0A70160E123
S113052081E00E94D00121E0AE014F5F5F4F62E1A4
S113053060C0143009F44CC0C8F1153009F05CC037
S113054025E0A6016FE081E00E94D00125E0A7012B
S113055060E181E00E94D00121E0AE014F5F5F4F76
S113056066E147C025E0A6016AE081E00E94D0016F
S113057025E0A70160E181E00E94D00121E0AE0105
S11305804F5F5F4F61E135C025E0A6016CE081E07B
S11305900E94D00125E0A70160E181E00E94D00122
S11305A021E0AE014F5F5F4F63E123C025E0A60168
S11305B06DE081E00E94D00125E0A70160E181E0C7
S11305C00E94D00121E0AE014F5F5F4F64E111C092
S11305D025E0A6016EE081E00E94D00125E0A7019C
S11305E060E181E00E94D00121E0AE014F5F5F4FE6
S11305F065E181E00E94D00124E5B21202C08EE1DF
S113060001C08FE1898321E0AE014F5F5F4F60E05D
S113061081E00E94D0018FEF91EE24E08150904060
S11306202040E1F700C000000F900F900F900F9052
S11306300F90DF91CF911F910F91FF90EF90DF907A
S1130640CF90BF90089585E38A95F1F70000C49890
S113065085E38A95F1F7000087E20E94A60185E30D
S11306608A95F1F7000080E70E94A60185E38A9548
S1130670F1F70000C49A0895CF93DF93EC0120E0D2
S1130680AC0161EE80E00E94D00125E0AE0160EA99
S113069080E00E94D0018FE39CE90197F1F700C04C
S11306A00000C39A87EC90E00197F1F700C00000C6
S11306B0C39895E39A95F1F70000DF91CF910C94DC
S11306C023037894C39A2FEF89E698E12150804060
S11306D09040E1F700C00000C398F8940C94230301
S11306E0CF93DF931F92CDB7DEB78FE1898321E0EB
S11306F0AE014F5F5F4F60E081E00E94D0012FEFB9
S113070081EE94E0215080409040E1F700C0000069
S11307100F90DF91CF910895CF93DF931F92CDB7C0
S1130720DEB78EE1898321E0AE014F5F5F4F60E069
S113073081E00E94D0012FEF81EE94E021508040AF
S11307409040E1F700C000000F90DF91CF91089531
S1130750CF93DF93CDB7DEB72A970FB6F894DEBFF9
S11307600FBECDBFB89AC09A0E94AB010E949C01F3
S113077085E0E0E6F0E0DE01169601900D928A95A0
S1130780E1F785E0E0E6F0E0DE01119601900D92DC
S11307908A95E1F722E5AE014F5F5F4FBE016A5FC4
S11307A07F4F80E00E9425020E94C7010E9423031C
S11307B089E790E00E94BB010E946103FDCFCF93C3
S11307C0DF93EC010E9423030E948C03CE010E945C
S11307D03C038FE891E00197F1F700C00000DF913E
S11307E0CF910C9470038F929F92AF92BF92CF924D
S11307F0DF92EF92FF92CF93DF93EB01FC018080B5
S11308009180A280B380C501B4010E941E060E949B
S1130810AB056B017C017983688320E030E048EC10
S113082052E4C501B4010E94F0064B015C01B6011B
S1130830DD0C880B990B0E94E30520E030E048ECC6
S113084052E40E94F0069B01AC01C501B4010E9470
S1130850C7040E94AB057B836A83DF91CF91FF902D
S1130860EF90DF90CF90BF90AF909F908F900895BE
S1130870CF93DF93CDB7DEB765970FB6F894DEBF9D
S11308800FBECDBF1A8A1B8A1C8A1D8A1E861F862C
S1130890188A198ABE01625F7F4FCE0142960E9478
S11308A0FB00BE01665F7F4FCE0142960E94F303B8
S11308B0BE016A5F7F4FCE010E960E94F30381E36F
S11308C089838A858A838C858B838E818C838885B2
S11308D08D83CE0101960E94DF0365960FB6F894CE
S11308E0DEBF0FBECDBFDF91CF9108951F920F924F
S11308F00FB60F9211242F933F934F935F936F93EF
S11309007F938F939F93AF93BF93EF93FF93CF9373
S1130910DF93CDB7DEB72597DEBFCDBF85E0E5E633
S1130920F0E0DE01119601900D928A95E1F7F894BA
S1130930C39825E040E050E061E680E00E94D001E9
S1130940FC012481273151F48381803719F40E94FA
S1130950380404C0CE0101960E94DF0378940F90FE
S11309600F900F900F900F90DF91CF91FF91EF9127
S1130970BF91AF919F918F917F916F915F914F91B3
S11309803F912F910F900FBE0F901F9018955058C4
S1130990BB27AA270E94DF040C9499060E948B06A9
S11309A038F00E94920620F039F49F3F19F426F49F
S11309B00C9488060EF4E095E7FB0C945906E92F95
S11309C00E94AA0658F3BA176207730784079507AB
S11309D020F079F4A6F50C94E4060EF4E0950B2EC1
S11309E0BA2FA02D0B01B90190010C01CA01A0017D
S11309F01124FF27591B99F0593F50F4503E68F1D8
S1130A001A16F040A22F232F342F4427585FF3CF18
S1130A10469537952795A795F0405395C9F77EF4E9
S1130A201F16BA0B620B730B840BBAF09150A1F032
S1130A30FF0FBB1F661F771F881FC2F70EC0BA0FB8
S1130A40621F731F841F48F4879577956795B79540
S1130A50F7959E3F08F0B0CF9395880F08F099273B
S1130A60EE0F9795879508950E94350608F481E066
S1130A7008950E944D050C9499060E94920658F020
S1130A800E948B0640F029F45F3F29F00C9459062C
S1130A9051110C94E5060C9488060E94AA0668F38A
S1130AA09923B1F3552391F3951B550BBB27AA2723
S1130AB062177307840738F09F5F5F4F220F331F5D
S1130AC0441FAA1FA9F335D00E2E3AF0E0E832D025
S1130AD091505040E695001CCAF72BD0FE2F29D028
S1130AE0660F771F881FBB1F261737074807AB07FA
S1130AF0B0E809F0BB0B802DBF01FF2793585F4F6F
S1130B003AF09E3F510578F00C9459060C94E50692
S1130B105F3FE4F3983ED4F3869577956795B79550
S1130B20F7959F5FC9F7880F911D9695879597F95B
S1130B300895E1E0660F771F881FBB1F62177307D4
S1130B408407BA0720F0621B730B840BBA0BEE1FE9
S1130B5088F7E09508950E94B2056894B1110C9449
S1130B60E50608950E94B20688F09F5798F0B92FC1
S1130B709927B751B0F0E1F0660F771F881F991FCE
S1130B801AF0BA95C9F714C0B13091F00E94E40686
S1130B90B1E008950C94E406672F782F8827B85F96
S1130BA039F0B93FCCF3869577956795B395D9F726
S1130BB03EF490958095709561957F4F8F4F9F4F30
S1130BC00895E89409C097FB3EF49095809570953C
S1130BD061957F4F8F4F9F4F9923A9F0F92F96E985
S1130BE0BB279395F695879577956795B795F111FA
S1130BF0F8CFFAF4BB0F11F460FF1BC06F5F7F4F97
S1130C008F4F9F4F16C0882311F096E911C07723A8
S1130C1021F09EE8872F762F05C0662371F096E8B1
S1130C20862F70E060E02AF09A95660F771F881F80
S1130C30DAF7880F9695879597F908950E94CC0660
S1130C4090F09F3748F4911116F00C94E50660E09B
S1130C5070E080E89FEB089526F41B16611D711D5A
S1130C60811D0C945F060C947A06990F0008550FA9
S1130C70AA0BE0E8FEEF16161706E807F907C0F01E
S1130C8012161306E407F50798F0621B730B840B26
S1130C90950B39F40A2661F0232B242B252B21F400
S1130CA008950A2609F4A140A6958FEF811D811DA0
S1130CB0089597F99F6780E870E060E008958823BD
S1130CC071F4772321F09850872B762F07C0662381
S1130CD011F499270DC09051862B70E060E02AF042
S1130CE09A95660F771F881FDAF7880F9695879570
S1130CF097F908959F3F31F0915020F487957795A7
S1130D006795B795880F911D9695879597F90895DE
S1130D109FEF80EC089500240A941616170618060F
S1130D200906089500240A941216130614060506EB
S1130D300895092E0394000C11F4882352F0BB0F7C
S1130D4040F4BF2B11F460FF04C06F5F7F4F8F4FDF
S1130D509F4F089557FD9058440F551F59F05F3F1A
S1130D6071F04795880F97FB991F61F09F3F79F0C9
S1130D7087950895121613061406551FF2CF46954B
S1130D80F1DF08C0161617061806991FF1CF8695CD
S1130D9071056105089408950E94B206A0F0BEE7AB
S1130DA0B91788F4BB279F3860F41616B11D672F56
S1130DB0782F8827985FF7CF869577956795B11D2B
S1130DC093959639C8F30895E894BB276627772747
S1130DD0CB0197F908950E94350608F48FEF089522
S1130DE00E9403070C9499060E948B0638F00E9417
S1130DF0920620F0952311F00C9459060C94880661
S1130E0011240C94E5060E94AA0670F3959FC1F381
S1130E10950F50E0551F629FF001729FBB27F00DA4
S1130E20B11D639FAA27F00DB11DAA1F649F6627F9
S1130E30B00DA11D661F829F2227B00DA11D621F48
S1130E40739FB00DA11D621F839FA00D611D221F02
S1130E50749F3327A00D611D231F849F600D211DE6
S1130E60822F762F6A2F11249F5750409AF0F1F069
S1130E7088234AF0EE0FFF1FBB1F661F771F881FD2
S1130E8091505040A9F79E3F510580F00C945906AB
S1130E900C94E5065F3FE4F3983ED4F3869577958A
S1130EA06795B795F795E7959F5FC1F7FE2B880F78
S1110EB0911D9695879597F90895F894FFCFB4
S1130EBE121212121231424344454572720A005400
S1130ECE696D656F7574310A00576F726B696E6761
S1050EDE0A0004
S9030000FC
