:100000000C9434000C94A2020C9451000C945100F6
:100010000C9451000C9451000C9451000C9451001C
:100020000C9451000C9451000C9451000C9451000C
:100030000C9451000C9451000C9451000C945100FC
:100040000C9451000C9451000C9451000C945100EC
:100050000C9451000C9451000C9451000C945100DC
:100060000C9451000C94510011241FBECFEFD8E026
:10007000DEBFCDBF11E0A0E0B1E0E4EEF5E002C0EC
:1000800005900D92A034B107D9F721E0A0E4B1E0CA
:1000900001C01D92A336B207E1F70E94FB010C9448
:1000A000F0020C94000084B18E6284B924988CB55F
:1000B00080658CBD2A9A299808958EBD0DB407FEDF
:1000C000FDCF8EB50895519A50981092C50087E6DD
:1000D0008093C40088E18093C10086E08093C200D1
:1000E00008959091C00095FFFCCF8093C6000895BD
:1000F000CF93DF93EC018991882319F00E9471005E
:10010000FACFDF91CF9108955298E9E6F0E080812F
:1001100082608083E89A78940895CF92DF92EF927C
:10012000FF920F931F93CF93DF93D82FC62F7A019F
:10013000C22EF894813029F4603A19F0613E09F03A
:10014000C05E85E38A95F1F700002A98E5E3EA9519
:10015000F1F700008C2F0E945D00F5E3FA95F1F7AE
:100160000000870180E4E82E81E0F82ED12CC70141
:10017000805491408C159D05C4F4D11108C0C03A3B
:1001800031F08FEF0E945D00F701808304C0F80119
:1001900080810E945D00F5E3FA95F1F700008FEF92
:1001A000E81AF80A0F5F1F4FE2CF2A9A789480E48A
:1001B00091E0DF91CF911F910F91FF90EF90DF9031
:1001C000CF900895BF92CF92DF92EF92FF920F935C
:1001D0001F93CF93DF9300D000D01F92CDB7DEB72F
:1001E000182F6B017A01B22E2FEF81EE94E021508F
:1001F00080409040E1F700C0000001E0010F09835A
:1002000021E0AE014F5F5F4F61E081E00E948D0011
:100210008FE1898321E0AE014F5F5F4F64E081E0B1
:100220000E948D00098321E0AE014F5F5F4F62E0C5
:1002300081E00E948D0083E0898321E0AE014F5F61
:100240005F4F63E081E00E948D0081E0898321E0BF
:10025000AE014F5F5F4F65E00E948D0087E08983AC
:1002600021E0AE014F5F5F4F66E081E00E948D00AC
:1002700085E08983123009F443C0B8F4112371F189
:10028000113009F075C025E0A6016BE081E00E9405
:100290008D0025E0A70160E181E00E948D0021E052
:1002A000AE014F5F5F4F62E160C0143009F44CC093
:1002B000C8F1153009F05CC025E0A6016FE081E0CF
:1002C0000E948D0025E0A70160E181E00E948D0081
:1002D00021E0AE014F5F5F4F66E147C025E0A60118
:1002E0006AE081E00E948D0025E0A70160E181E0E5
:1002F0000E948D0021E0AE014F5F5F4F61E135C08C
:1003000025E0A6016CE081E00E948D0025E0A701B8
:1003100060E181E00E948D0021E0AE014F5F5F4F00
:1003200063E123C025E0A6016DE081E00E948D001D
:1003300025E0A70160E181E00E948D0021E0AE018F
:100340004F5F5F4F64E111C025E0A6016EE081E0E0
:100350000E948D0025E0A70160E181E00E948D00F0
:1003600021E0AE014F5F5F4F65E181E00E948D00AB
:1003700024E5B21202C08EE101C08FE1898321E041
:10038000AE014F5F5F4F60E081E00E948D008FEF14
:1003900091EE24E0815090402040E1F700C0000041
:1003A0000F900F900F900F900F90DF91CF911F91B2
:1003B0000F91FF90EF90DF90CF90BF9008957894C9
:1003C000299A089585E38A95F1F700002A9885E334
:1003D0008A95F1F7000087E20E945D0085E38A9527
:1003E000F1F7000080E70E945D0085E38A95F1F750
:1003F00000002A9A0895CF93DF93CDB7DEB72A97EE
:100400000FB6F894DEBF0FBECDBF3C9A449A0E944F
:1004100063000E94530085E0E5E0F1E0DE011696FE
:1004200001900D928A95E1F785E0E5E0F1E0DE01CB
:10043000119601900D928A95E1F722E5AE014F5F8A
:100440005F4FBE016A5F7F4F80E00E94E2000E9422
:1004500084000E94E2010E94DF01FDCFCF93DF9371
:10046000EC0120E0AC0161EE81E00E948D0025E00E
:10047000AE0160EA81E00E948D0078948FE39CE9F0
:100480000197F1F700C00000299A87EC90E00197EE
:10049000F1F700C00000299895E39A95F1F7000064
:1004A000DF91CF910C94E201CF93DF931F92CDB7F0
:1004B000DEB78FE1898321E0AE014F5F5F4F60E0DF
:1004C00081E00E948D002FEF81EE94E0215080406A
:1004D0009040E1F700C000000F90DF91CF910895A8
:1004E000CF93DF931F92CDB7DEB78EE1898321E0F2
:1004F000AE014F5F5F4F60E081E00E948D002FEF03
:1005000081EE94E0215080409040E1F700C000006F
:100510000F90DF91CF91089578940E94E20181E0DD
:10052000809360010E94700280E091E00E942E02A0
:100530008FE891E00197F1F700C000001092600190
:100540000C9454021F920F920FB60F9211242F9306
:100550003F934F935F936F937F938F939F93AF934B
:10056000BF93EF93FF93F8942998809160018111D4
:100570001BC0409161015091620125E061E60E943B
:100580008D009093620180936101FC01848182332C
:1005900099F48AE091E00E9478008DE191E00E9458
:1005A00078000E948C0208C080916001813021F4A3
:1005B0008CE291E00E9478000E94E2017894FF9121
:1005C000EF91BF91AF919F918F917F916F915F91CB
:1005D0004F913F912F910F900FBE0F901F90189544
:0405E000F894FFCFBD
:1005E40050515253541212121212526563656976B5
:1005F400656420726571756573740D0A0053656EC8
:1006040064696E67206261636B0D0A005472616EE7
:10061400736D6974746564206261636B2E0D0A00E6
:00000001FF
