:100000000C942A000C943A030C9447000C9447007B
:100010000C9447000C9447000C9447000C94470044
:100020000C9447000C9447000C9447000C94470034
:100030000C9447000C9447000C9447000C94470024
:100040000C9447000C9447000C9447000C94470014
:100050000C94470011241FBECFE5D4E0DEBFCDBF16
:1000600010E0A0E6B0E0E6E2F8E002C005900D92F4
:10007000AE37B107D9F720E0AEE7B0E001C01D927E
:10008000A73AB207E1F70E94C7030C9411040C943D
:1000900000009BB382E089278BBB2FEF80E792E0C3
:1000A000215080409040E1F700C00000089587B3E0
:1000B000886B87BBBE988DB180658DB9C49AC39893
:1000C00008958FB9779BFECF8FB10895899A88984C
:1000D00010BC87E689B98AB188618AB980B586681B
:1000E00080BD08955D9BFECF8CB90895CF93DF93BB
:1000F000EC018991882319F00E947200FACFDF91F8
:10010000CF9108958A988BB780648BBF85B7826042
:1001100085BF78940895CF92DF92EF92FF920F936C
:100120001F93CF93DF93D82FC62F7A01C22EF89456
:10013000813029F4603A19F0613E09F0C05E85E330
:100140008A95F1F70000C498E5E3EA95F1F700001D
:100150008C2F0E946100F5E3FA95F1F7000087010A
:100160008EE7E82E80E0F82ED12CC7018E57904004
:100170008C159D05C4F4D11108C0C03A31F08FEF41
:100180000E946100F701808304C0F80180810E9411
:100190006100F5E3FA95F1F700008FEFE81AF80A2D
:1001A0000F5F1F4FE2CFC49A78948EE790E0DF9103
:1001B000CF911F910F91FF90EF90DF90CF90089516
:1001C000BF92CF92DF92EF92FF920F931F93CF9344
:1001D000DF9300D000D01F92CDB7DEB7182F6B0190
:1001E0007A01B22E2FEF81EE94E0215080409040B2
:1001F000E1F700C0000001E0010F098321E0AE013A
:100200004F5F5F4F61E081E00E948B008FE2898346
:1002100021E0AE014F5F5F4F64E081E00E948B0000
:10022000098321E0AE014F5F5F4F62E081E00E94F1
:100230008B0083E0898321E0AE014F5F5F4F63E075
:1002400081E00E948B0081E0898321E0AE014F5F55
:100250005F4F65E00E948B0087E0898321E0AE015B
:100260004F5F5F4F66E081E00E948B0085E08983ED
:10027000123009F443C0B8F4112371F1113009F0C0
:1002800075C025E0A6016BE081E00E948B0025E0AF
:10029000A70160E181E00E948B0021E0AE014F5F89
:1002A0005F4F62E160C0143009F44CC0C8F11530F2
:1002B00009F05CC025E0A6016FE081E00E948B00A0
:1002C00025E0A70160E181E00E948B0021E0AE0102
:1002D0004F5F5F4F66E147C025E0A6016AE081E01D
:1002E0000E948B0025E0A70160E181E00E948B0065
:1002F00021E0AE014F5F5F4F61E135C025E0A6010F
:100300006CE081E00E948B0025E0A70160E181E0C4
:100310000E948B0021E0AE014F5F5F4F63E123C07D
:1003200025E0A6016DE081E00E948B0025E0A70199
:1003300060E181E00E948B0021E0AE014F5F5F4FE2
:1003400064E111C025E0A6016EE081E00E948B000F
:1003500025E0A70160E181E00E948B0021E0AE0171
:100360004F5F5F4F65E181E00E948B0024E5B21290
:1003700002C08EE101C08FE1898321E0AE014F5FB1
:100380005F4F60E081E00E948B008FEF91EE24E0F0
:10039000815090402040E1F700C000000F900F9086
:1003A0000F900F900F90DF91CF911F910F91FF90C1
:1003B000EF90DF90CF90BF90089585E38A95F1F795
:1003C0000000C49885E38A95F1F7000087E20E9457
:1003D000610085E38A95F1F7000080E70E946100E3
:1003E00085E38A95F1F70000C49A0895CF93DF93CF
:1003F000EC0120E0AC0161EE80E00E948B0025E082
:10040000AE0160EA80E00E948B008FE39CE90197D7
:10041000F1F700C00000C39A87EC90E00197F1F774
:1004200000C00000C39895E39A95F1F70000DF91B2
:10043000CF910C94DD017894C39A2FEF83ED90E374
:10044000215080409040E1F700C00000C398F8942C
:100450000C94DD01CF93DF931F92CDB7DEB78FE110
:10046000898321E0AE014F5F5F4F60E081E00E9431
:100470008B002FEF81EE94E0215080409040E1F717
:1004800000C000000F90DF91CF910895CF93DF93CC
:100490001F92CDB7DEB78EE1898321E0AE014F5FB9
:1004A0005F4F60E081E00E948B002FEF81EE94E0CF
:1004B000215080409040E1F700C000000F90DF9194
:1004C000CF910895CF93C9B3C1708091A000C81790
:1004D00021F00E944900C093A000CF910895CF93CE
:1004E000DF93EC010E94DD010E944602CE010E94D2
:1004F000F6018FE891E00197F1F700C00000DF916D
:10050000CF910C942A02CF92DF92EF92FF920F9339
:100510001F93CF93DF9300D000D01F92CDB7DEB7EB
:10052000082FF62E10929F001BE081E4E82E92E443
:10053000D92E23E4C22E80919F00813071F011509A
:1005400061F0E982DA82CB82FC820D83CE010196D2
:100550000E946F020E941B02EECF10929F000F902C
:100560000F900F900F900F90DF91CF911F910F91EF
:10057000FF90EF90DF90CF900895CF93C9B3C695C9
:10058000C1708091A6008C1741F069B366956170C7
:1005900081EF0E948302C093A600CF9108958E9AA6
:1005A00096982FEF89EF90E0215080409040E1F73E
:1005B00000C00000969A08958E988699FECF869B7B
:1005C000FECF8699FECF089528E030E0869BFECFCF
:1005D00080EA8A95F1F780919E00880F8699816064
:1005E00080939E008699FECF2150310979F7809142
:1005F0009E000895CF93DF9300D000D01F92CDB717
:10060000DEB70E94CF020E94DC020E94E4028093C7
:10061000A2000E94E4028093A3000E94E40280935F
:10062000A1000E94E4028093A5000E94E40280934E
:10063000A4008091A2009091A10021E4298322E4EA
:100640002A8323E42B839C838D83CE0101960E9411
:100650006F022FEF85EB95E3215080409040E1F74A
:1006600000C000000F900F900F900F900F90DF913F
:10067000CF9108951F920F920FB60F9211240F93EE
:100680001F932F933F934F935F936F937F938F931A
:100690009F93AF93BF93EF93FF93CF93DF93CDB728
:1006A000DEB72A97DEBFCDBF85E0E0E6F0E0DE01F1
:1006B000169601900D928A95E1F7F894C39825E07B
:1006C00040E050E061E680E00E948B008C01FC017C
:1006D00084818631C1F58AE690E00E947600F801B7
:1006E0008381803719F40E94FA022DC0863621F4E6
:1006F00081E080939F0027C0813561F4F8018281F9
:10070000813F09F50E94490089B3869581708093E5
:10071000A60019C0823599F4F8018281813F99F4CD
:1007200089B391E4998392E49A8393E49B8394E45C
:100730009C83869581708D83CE01019602C0CE0187
:1007400006960E946F0278942A960FB6F894DEBF40
:100750000FBECDBFDF91CF91FF91EF91BF91AF91D0
:100760009F918F917F916F915F914F913F912F91C9
:100770001F910F910F900FBE0F901F901895D19A57
:10078000D9980895D3980895D098D89A0895CF937A
:10079000DF93CDB7DEB72A970FB6F894DEBF0FBE52
:1007A000CDBFB89AC09A0E9466000E94570085E0AB
:1007B000E5E6F0E0DE01169601900D928A95E1F7EC
:1007C00085E0E5E6F0E0DE01119601900D928A9554
:1007D000E1F722E5AE014F5F5F4FBE016A5F7F4FD9
:1007E00080E00E94E0000E94BF030E94C2030E94BA
:1007F000C4030E9482000E94DD0184E790E00E9411
:10080000760089B3869581708093A60089B3817044
:100810008093A0000E941B020E9462020E94BD02FF
:06082000F9CFF894FFCFB0
:1008260041424344451212121212526563656976BB
:0E08360065640A00576F726B696E670A0000F6
:00000001FF
