:100000000C942A000C9468030C9447000C9447004D
:100010000C9447000C9447000C9447000C94470044
:100020000C9447000C9447000C9447000C94470034
:100030000C9447000C9447000C9447000C94470024
:100040000C9447000C9447000C9447000C94470014
:100050000C94470011241FBECFE5D4E0DEBFCDBF16
:1000600010E0A0E6B0E0E8E6FDE002C005900D92E9
:10007000AE3CB107D9F720E0AEECB0E001C01D9274
:10008000A93FB207E1F70E94EB010C94B2060C9471
:10009000000087B3886B87BBBE988DB180658DB932
:1000A000C49AC39808958FB9779BFECF8FB10895F6
:1000B000899A889810BC87E689B98AB188618AB91B
:1000C00080B5866880BD08955D9BFECF8CB908958C
:1000D000CF93DF93EC018991882319F00E9464008B
:1000E000FACFDF91CF9108958A988BB780648BBF48
:1000F00085B7826085BF78940895CF92DF92EF92A2
:10010000FF920F931F93CF93DF93D82FC62F7A01BF
:10011000C22EF894813029F4603A19F0613E09F05A
:10012000C05E85E38A95F1F70000C498E5E3EA959F
:10013000F1F700008C2F0E945300F5E3FA95F1F7D8
:10014000000087018EECE82E80E0F82ED12CC7014C
:100150008E5C90408C159D05C4F4D11108C0C03A46
:1001600031F08FEF0E945300F701808304C0F80143
:1001700080810E945300F5E3FA95F1F700008FEFBC
:10018000E81AF80A0F5F1F4FE2CFC49A78948EECFA
:1001900090E0DF91CF911F910F91FF90EF90DF9052
:1001A000CF900895BF92CF92DF92EF92FF920F937C
:1001B0001F93CF93DF9300D000D01F92CDB7DEB74F
:1001C000182F6B017A01B22E2FEF81EE94E02150AF
:1001D00080409040E1F700C0000001E0010F09837A
:1001E00021E0AE014F5F5F4F61E081E00E947D0042
:1001F0008FE1898321E0AE014F5F5F4F64E081E0D2
:100200000E947D00098321E0AE014F5F5F4F62E0F5
:1002100081E00E947D0083E0898321E0AE014F5F91
:100220005F4F63E081E00E947D0081E0898321E0EF
:10023000AE014F5F5F4F65E00E947D0087E08983DC
:1002400021E0AE014F5F5F4F66E081E00E947D00DC
:1002500085E08983123009F443C0B8F4112371F1A9
:10026000113009F075C025E0A6016BE081E00E9425
:100270007D0025E0A70160E181E00E947D0021E092
:10028000AE014F5F5F4F62E160C0143009F44CC0B3
:10029000C8F1153009F05CC025E0A6016FE081E0EF
:1002A0000E947D0025E0A70160E181E00E947D00C1
:1002B00021E0AE014F5F5F4F66E147C025E0A60138
:1002C0006AE081E00E947D0025E0A70160E181E015
:1002D0000E947D0021E0AE014F5F5F4F61E135C0BC
:1002E00025E0A6016CE081E00E947D0025E0A701E9
:1002F00060E181E00E947D0021E0AE014F5F5F4F31
:1003000063E123C025E0A6016DE081E00E947D004D
:1003100025E0A70160E181E00E947D0021E0AE01BF
:100320004F5F5F4F64E111C025E0A6016EE081E000
:100330000E947D0025E0A70160E181E00E947D0030
:1003400021E0AE014F5F5F4F65E181E00E947D00DB
:1003500024E5B21202C08EE101C08FE1898321E061
:10036000AE014F5F5F4F60E081E00E947D008FEF44
:1003700091EE24E0815090402040E1F700C0000061
:100380000F900F900F900F900F90DF91CF911F91D2
:100390000F91FF90EF90DF90CF90BF9008957894E9
:1003A000C39A089585E38A95F1F70000C49885E320
:1003B0008A95F1F7000087E20E94530085E38A9551
:1003C000F1F7000080E70E94530085E38A95F1F77A
:1003D0000000C49A0895CF93DF93CDB7DEB72A9774
:1003E0000FB6F894DEBF0FBECDBFB89AC09A0E9478
:1003F00058000E94490085E0E5E6F0E0DE0116962F
:1004000001900D928A95E1F785E0E5E6F0E0DE01E6
:10041000119601900D928A95E1F722E5AE014F5FAA
:100420005F4FBE016A5F7F4F80E00E94D2000E9452
:1004300074000E94D2018AE690E00E9468000E9447
:10044000CF01FDCFCF93DF93EC0120E0AC0161EE53
:1004500080E00E947D0025E0AE0160EA80E00E941D
:100460007D0078948FE39CE90197F1F700C00000CC
:10047000C39A87EC90E00197F1F700C00000C398A1
:1004800095E39A95F1F70000DF91CF910C94D2019A
:10049000CF93DF931F92CDB7DEB78FE1898321E041
:1004A000AE014F5F5F4F60E081E00E947D002FEF63
:1004B00081EE94E0215080409040E1F700C00000C0
:1004C0000F90DF91CF910895CF93DF931F92CDB717
:1004D000DEB78EE1898321E0AE014F5F5F4F60E0C0
:1004E00081E00E947D002FEF81EE94E0215080405A
:1004F0009040E1F700C000000F90DF91CF91089588
:10050000CF93DF93EC0178940E94D20181E0809335
:10051000EF000E946402CE010E9422028FE891E067
:100520000197F1F700C000001092EF00DF91CF912A
:100530000C9448028E9A96982FEF89EF90E0215004
:1005400080409040E1F700C00000969A08958E9890
:100550008699FECF869BFECF8699FECF089528E030
:1005600030E0869BFECF80EA8A95F1F78091EE001D
:10057000880F869981608093EE008699FECF215086
:10058000310979F78091EE000895EF92FF920F9371
:100590001F93CF93DF93CDB7DEB729970FB6F894AB
:1005A000DEBF0FBECDBF0E949A020E94A7020E942A
:1005B000AF028093F1000E94AF028093F4000E948A
:1005C000AF028093F0000E94AF028093F8000E9477
:1005D000AF028093F5009091F7002091F40030E095
:1005E000290F311D9091F600290F311D9091F800CF
:1005F000290F311D90E02817390721F083E790E09B
:100600000E9468008091F000282F082E000C330B08
:100610003F938F9309E810E01F930F937E0128E02A
:10062000E20EF11CFF92EF920E94C8038CE890E06A
:100630000E946800C7010E94680083EC90E00E945D
:1006400068008091F100282F082E000C330B3F9397
:100650008F931F930F938E010A5F1F4F1F930F936A
:100660000E94C8038AE990E00E946800C8010E94C5
:10067000680083EC90E00E94680081E4898382E452
:100680008A8383E48B838091F0008C838091F100D6
:100690008D83CE0101960E9480028FEF95EB25E3BA
:1006A000815090402040E1F700C000000FB6F89460
:1006B000DEBF0FBECDBF29960FB6F894DEBF0FBECA
:1006C000CDBFDF91CF911F910F91FF90EF900895D3
:1006D0001F920F920FB60F9211242F933F934F93B7
:1006E0005F936F937F938F939F93AF93BF93EF939A
:1006F000FF93F894C3988091EF00811135C0409129
:10070000F2005091F30025E061E60E947D00909395
:10071000F3008093F200FC018481863129F583EA9D
:1007200090E00E94680086EB90E00E94680085ECF3
:1007300090E00E946800E091F200F091F300838164
:100740000E94640083EC90E00E946800E091F20057
:10075000F091F3008381803719F40E94C50204C030
:1007600080E690E00E9480020E94D2017894FF917E
:10077000EF91BF91AF919F918F917F916F915F9119
:100780004F913F912F910F900FBE0F901F90189592
:10079000AEE0B0E0EEECF3E00C9489060D891E8922
:1007A00086E08C831A8309838FEF9FE79E838D8376
:1007B000AE01475E5F4F6F89788DCE0101960E9432
:1007C000EA03EF81F885E00FF11F10822E96E4E036
:1007D0000C94A506ABE0B0E0E0EFF3E00C947B06F0
:1007E0006C017B018A01FC0117821682838181FFE3
:1007F000CCC1CE0101963C01F6019381F70193FD36
:10080000859193FF81917F01882309F4BAC18532D4
:1008100039F493FD859193FF81917F01853229F40D
:10082000B60190E00E94E105E7CF912C212C312CFC
:10083000FFE1F315D8F08B3279F038F4803279F09B
:100840008332A1F4232D20611DC08D3261F08033ED
:1008500069F4232D216016C0832D8260382EE32D8C
:10086000E4603E2E2AC0F32DF8601DC037FC2DC079
:1008700020ED280F2A3040F08E32B9F436FC81C1C9
:10088000232D2064322E19C036FE06C08AE0989EC1
:10089000200D1124922E11C0EAE02E9E200D11246D
:1008A000222EF32DF0623F2E08C08C3621F4832DCA
:1008B0008068382E02C0883641F4F70193FD859197
:1008C00093FF81917F018111B3CF982F9F7D955424
:1008D000933028F40C5F1F4F9FE399830DC083363C
:1008E00031F0833771F0833509F059C021C0F80128
:1008F000808189830E5F1F4F88248394912C53013C
:1009000013C02801F2E04F0E511CF801A080B18005
:1009100036FE03C0692D70E002C06FEF7FEFC501A6
:100920000E94D6054C018201F32DFF773F2E16C0A1
:10093000280122E0420E511CF801A080B18036FE51
:1009400003C0692D70E002C06FEF7FEFC5010E9408
:10095000CB054C01F32DF0683F2E820133FC1BC008
:10096000822D90E088169906B0F4B60180E290E0FE
:100970000E94E1052A94F4CFF50137FC859137FEFA
:1009800081915F01B60190E00E94E10521102A9457
:1009900021E0821A91088114910471F7E8C084362D
:1009A00011F0893641F5F80137FE07C06081718189
:1009B000828193810C5F1F4F08C060817181072E77
:1009C000000C880B990B0E5F1F4FF32DFF763F2E07
:1009D00097FF09C090958095709561957F4F8F4FD7
:1009E0009F4FF0683F2E2AE030E0A3010E941D06D1
:1009F000882E861845C0853731F4232D2F7EB22EE0
:100A00002AE030E025C0932D997FB92E8F36C1F0B2
:100A100018F4883579F0B5C0803719F0883721F09F
:100A2000B0C0E92FE061BE2EB4FE0DC0FB2DF46016
:100A3000BF2E09C034FE0AC0292F2660B22E06C080
:100A400028E030E005C020E130E002C020E132E0E3
:100A5000F801B7FE07C060817181828193810C5FCC
:100A60001F4F06C06081718180E090E00E5F1F4FD4
:100A7000A3010E941D06882E8618FB2DFF773F2EAE
:100A800036FE0DC0232D2E7FA22E891458F434FE7D
:100A90000BC032FC09C0832D8E7EA82E05C0B82C59
:100AA000A32C03C0B82C01C0B92CA4FE0FC0FE01BA
:100AB000E80DF11D8081803321F49A2D997EA92EB5
:100AC00009C0A2FE06C0B394B39404C08A2D8678F0
:100AD00009F0B394A3FC11C0A0FE06C0B21488F4C0
:100AE000280C922C9B180EC0B21460F4B60180E260
:100AF00090E00E94E105B394F7CFB21418F42B18DC
:100B000002C0982C212CA4FE10C0B60180E390E016
:100B10000E94E105A2FE17C0A1FC03C088E790E097
:100B200002C088E590E0B6010CC08A2D867859F0A5
:100B3000A1FE02C08BE201C080E2A7FC8DE2B601FB
:100B400090E00E94E105891438F4B60180E390E05A
:100B50000E94E1059A94F7CF8A94F301E80DF11D04
:100B60008081B60190E00E94E1058110F5CF22203E
:100B700009F442CEB60180E290E00E94E1052A9499
:100B8000F6CFF6018681978102C08FEF9FEF2B96FB
:100B9000E2E10C949706FC01059061507040011051
:100BA000D8F7809590958E0F9F1F0895FC01615096
:100BB000704001900110D8F7809590958E0F9F1F7F
:100BC00008950F931F93CF93DF93FB01238121FDA2
:100BD00003C08FEF9FEF2CC022FF16C046815781C4
:100BE000248135814217530744F4A081B1819D01CE
:100BF0002F5F3F4F318320838C93268137812F5F76
:100C00003F4F3783268314C08B01EC01FB01008426
:100C1000F185E02D0995892BE1F6D80116968D9185
:100C20009C911797019617969C938E931697CE01D9
:100C3000DF91CF911F910F910895FA01AA272830D3
:100C400051F1203181F1E8946F936E7F6E5F7F4F99
:100C50008F4F9F4FAF4FB1E03ED0B4E03CD0670F15
:100C6000781F891F9A1FA11D680F791F8A1F911D68
:100C7000A11D6A0F711D811D911DA11D20D009F4B8
:100C800068943F912AE0269F11243019305D3193FA
:100C9000DEF6CF010895462F4770405D4193B3E0E3
:100CA0000FD0C9F7F6CF462F4F70405D4A3318F08A
:100CB000495D31FD4052419302D0A9F7EACFB4E03B
:100CC000A6959795879577956795BA95C9F70097F3
:100CD0006105710508959B01AC010A2E0694579594
:100CE000479537952795BA95C9F7620F731F841FEB
:100CF000951FA01D08952F923F924F925F926F9281
:100D00007F928F929F92AF92BF92CF92DF92EF929B
:100D1000FF920F931F93CF93DF93CDB7DEB7CA1B1C
:100D2000DB0B0FB6F894DEBF0FBECDBF09942A8847
:100D3000398848885F846E847D848C849B84AA84EF
:100D4000B984C884DF80EE80FD800C811B81AA817C
:100D5000B981CE0FD11D0FB6F894DEBF0FBECDBF47
:080D6000ED010895F894FFCFA6
:100D680041424344451212121212576F726B696E58
:100D7800670A004572726F72207769746820636829
:100D880065636B2073756D0A0025640054656D708A
:100D9800657261747572653A2000447265676D65A5
:100DA8003A200052656365697665642072657175DD
:100DB8006573740D0A0053656E64696E672062611D
:0E0DC800636B0D0A00436F6D6D616E643A003F
:00000001FF
