:100000000C942A000C949A020C9447000C9447001C
:100010000C9447000C9447000C9447000C94470044
:100020000C9447000C9447000C9447000C94470034
:100030000C9447000C9447000C9447000C94470024
:100040000C9447000C9447000C9447000C94470014
:100050000C94470011241FBECFE5D4E0DEBFCDBF16
:1000600010E0A0E6B0E0E8EDF5E002C005900D92EA
:10007000A63DB107D9F721E0A6EDB0E001C01D9281
:10008000A030B207E1F70E94EB010C94EA020C9455
:10009000000087B3886B87BBBE988DB180658DB932
:1000A000C49AC39808958FB9779BFECF8FB10895F6
:1000B000899A889810BC87E689B98AB188618AB91B
:1000C00080B5866880BD08955D9BFECF8CB908958C
:1000D000CF93DF93EC018991882319F00E9464008B
:1000E000FACFDF91CF9108958A988BB780648BBF48
:1000F00085B7826085BF78940895CF92DF92EF92A2
:10010000FF920F931F93CF93DF93D82FC62F7A01BF
:10011000C22EF894813029F4603A19F0613E09F05A
:10012000C05E85E38A95F1F70000C498E5E3EA959F
:10013000F1F700008C2F0E945300F5E3FA95F1F7D8
:100140000000870186EDE82E80E0F82ED12CC70153
:10015000865D90408C159D05C4F4D11108C0C03A4D
:1001600031F08FEF0E945300F701808304C0F80143
:1001700080810E945300F5E3FA95F1F700008FEFBC
:10018000E81AF80A0F5F1F4FE2CFC49A789486ED01
:1001900090E0DF91CF911F910F91FF90EF90DF9052
:1001A000CF900895BF92CF92DF92EF92FF920F937C
:1001B0001F93CF93DF9300D000D01F92CDB7DEB74F
:1001C000182F6B017A01B22E2FEF81EE94E02150AF
:1001D00080409040E1F700C0000001E0010F09837A
:1001E00021E0AE014F5F5F4F61E081E00E947D0042
:1001F0008FE1898321E0AE014F5F5F4F64E081E0D2
:100200000E947D00098321E0AE014F5F5F4F62E0F5
:1002100081E00E947D0083E0898321E0AE014F5F91
:100220005F4F63E081E00E947D0081E0898321E0EF
:10023000AE014F5F5F4F65E00E947D0087E08983DC
:1002400021E0AE014F5F5F4F66E081E00E947D00DC
:1002500085E08983123009F443C0B8F4112371F1A9
:10026000113009F075C025E0A6016BE081E00E9425
:100270007D0025E0A70160E181E00E947D0021E092
:10028000AE014F5F5F4F62E160C0143009F44CC0B3
:10029000C8F1153009F05CC025E0A6016FE081E0EF
:1002A0000E947D0025E0A70160E181E00E947D00C1
:1002B00021E0AE014F5F5F4F66E147C025E0A60138
:1002C0006AE081E00E947D0025E0A70160E181E015
:1002D0000E947D0021E0AE014F5F5F4F61E135C0BC
:1002E00025E0A6016CE081E00E947D0025E0A701E9
:1002F00060E181E00E947D0021E0AE014F5F5F4F31
:1003000063E123C025E0A6016DE081E00E947D004D
:1003100025E0A70160E181E00E947D0021E0AE01BF
:100320004F5F5F4F64E111C025E0A6016EE081E000
:100330000E947D0025E0A70160E181E00E947D0030
:1003400021E0AE014F5F5F4F65E181E00E947D00DB
:1003500024E5B21202C08EE101C08FE1898321E061
:10036000AE014F5F5F4F60E081E00E947D008FEF44
:1003700091EE24E0815090402040E1F700C0000061
:100380000F900F900F900F900F90DF91CF911F91D2
:100390000F91FF90EF90DF90CF90BF9008957894E9
:1003A000C39A089585E38A95F1F70000C49885E320
:1003B0008A95F1F7000087E20E94530085E38A9551
:1003C000F1F7000080E70E94530085E38A95F1F77A
:1003D0000000C49A0895CF93DF93CDB7DEB72A9774
:1003E0000FB6F894DEBF0FBECDBFB89AC09A0E9478
:1003F00058000E94490085E0E5E6F0E0DE0116962F
:1004000001900D928A95E1F785E0E5E6F0E0DE01E6
:10041000119601900D928A95E1F722E5AE014F5FAA
:100420005F4FBE016A5F7F4F80E00E94D2000E9452
:1004300074000E94D2018AE690E00E9468000E9447
:10044000CF01FDCFCF93DF93EC0120E0AC0161EE53
:1004500080E00E947D0025E0AE0160EA80E00E941D
:100460007D0078948FE39CE90197F1F700C00000CC
:10047000C39A87EC90E00197F1F700C00000C398A1
:1004800095E39A95F1F70000DF91CF910C94D2019A
:10049000CF93DF931F92CDB7DEB78FE1898321E041
:1004A000AE014F5F5F4F60E081E00E947D002FEF63
:1004B00081EE94E0215080409040E1F700C00000C0
:1004C0000F90DF91CF910895CF93DF931F92CDB717
:1004D000DEB78EE1898321E0AE014F5F5F4F60E0C0
:1004E00081E00E947D002FEF81EE94E0215080405A
:1004F0009040E1F700C000000F90DF91CF91089588
:10050000CF93DF93EC0178940E94D20181E0809335
:10051000F6000E946402CE010E9422028FE891E060
:100520000197F1F700C000001092F600DF91CF9123
:100530000C9448021F920F920FB60F9211242F9322
:100540003F934F935F936F937F938F939F93AF935B
:10055000BF93EF93FF93F894C3988091F6008111B5
:100560001DC04091F9005091FA0025E061E60E941B
:100570007D009093FA008093F900FC01848186311C
:10058000A9F483E790E00E94680086E890E00E946A
:10059000680080E690E00E94800208C08091F6002A
:1005A000813021F485E990E00E9468000E94D20128
:1005B0007894FF91EF91BF91AF919F918F917F912F
:1005C0006F915F914F913F912F910F900FBE0F90C0
:0805D0001F901895F894FFCF6D
:1005D80041424344451212121212576F726B696EF0
:1005E800670A00526563656976656420726571758E
:1005F8006573740D0A0053656E64696E67206261E5
:10060800636B0D0A005472616E736D69747465646E
:10061800206261636B004572726F7220776974683B
:1006280020636865636B2073756D0A002564005448
:10063800656D70657261747572653A200044726503
:06064800676D653A200019
:00000001FF
