S01B00006E524634334C303141746D65676132285458292E7372656371
S11300000C942A000C9454030C9447000C9447005D
S11300100C9447000C9447000C9447000C94470040
S11300200C9447000C9447000C9447000C94470030
S11300300C9447000C9447000C9447000C94470020
S11300400C9447000C9447000C9447000C94470010
S11300500C94470011241FBECFE5D4E0DEBFCDBF12
S113006010E0A0E6B0E0E4E4F8E002C005900D92F0
S1130070A439B107D9F720E0A4E9B0E001C01D928A
S1130080AD3BB207E1F70E94D6030C9420040C9414
S1130090000087B3886B87BBBE988DB180658DB92E
S11300A0C49AC39808958FB9779BFECF8FB10895F2
S11300B0899A889810BC87E689B98AB188618AB917
S11300C080B5866880BD08955D9BFECF8CB9089588
S11300D0CF93DF93EC018991882319F00E94640087
S11300E0FACFDF91CF9108958A988BB780648BBF44
S11300F085B7826085BF78940895CF92DF92EF929E
S1130100FF920F931F93CF93DF93D82FC62F7A01BB
S1130110C22EF894813029F4603A19F0613E09F056
S1130120C05E85E38A95F1F70000C498E5E3EA959B
S1130130F1F700008C2F0E945300F5E3FA95F1F7D4
S11301400000870184E9E82E80E0F82ED12CC70155
S1130150845990408C159D05C4F4D11108C0C03A4F
S113016031F08FEF0E945300F701808304C0F8013F
S113017080810E945300F5E3FA95F1F700008FEFB8
S1130180E81AF80A0F5F1F4FE2CFC49A789484E903
S113019090E0DF91CF911F910F91FF90EF90DF904E
S11301A0CF900895BF92CF92DF92EF92FF920F9378
S11301B01F93CF93DF9300D000D01F92CDB7DEB74B
S11301C0182F6B017A01B22E2FEF81EE94E02150AB
S11301D080409040E1F700C0000001E0010F098376
S11301E021E0AE014F5F5F4F61E081E00E947D003E
S11301F08FE2898321E0AE014F5F5F4F64E081E0CD
S11302000E947D00098321E0AE014F5F5F4F62E0F1
S113021081E00E947D0083E0898321E0AE014F5F8D
S11302205F4F63E081E00E947D0081E0898321E0EB
S1130230AE014F5F5F4F65E00E947D0087E08983D8
S113024021E0AE014F5F5F4F66E081E00E947D00D8
S113025085E08983123009F443C0B8F4112371F1A5
S1130260113009F075C025E0A6016BE081E00E9421
S11302707D0025E0A70160E181E00E947D0021E08E
S1130280AE014F5F5F4F62E160C0143009F44CC0AF
S1130290C8F1153009F05CC025E0A6016FE081E0EB
S11302A00E947D0025E0A70160E181E00E947D00BD
S11302B021E0AE014F5F5F4F66E147C025E0A60134
S11302C06AE081E00E947D0025E0A70160E181E011
S11302D00E947D0021E0AE014F5F5F4F61E135C0B8
S11302E025E0A6016CE081E00E947D0025E0A701E5
S11302F060E181E00E947D0021E0AE014F5F5F4F2D
S113030063E123C025E0A6016DE081E00E947D0049
S113031025E0A70160E181E00E947D0021E0AE01BB
S11303204F5F5F4F64E111C025E0A6016EE081E0FC
S11303300E947D0025E0A70160E181E00E947D002C
S113034021E0AE014F5F5F4F65E181E00E947D00D7
S113035024E5B21202C08EE101C08FE1898321E05D
S1130360AE014F5F5F4F60E081E00E947D008FEF40
S113037091EE24E0815090402040E1F700C000005D
S11303800F900F900F900F900F90DF91CF911F91CE
S11303900F91FF90EF90DF90CF90BF90089585E389
S11303A08A95F1F70000C49885E38A95F1F7000077
S11303B087E20E94530085E38A95F1F7000080E705
S11303C00E94530085E38A95F1F70000C49A0895CA
S11303D0CF93DF93EC0120E0AC0161EE80E00E945A
S11303E07D0025E0AE0160EA80E00E947D008FE39D
S11303F09CE90197F1F700C00000C39A87EC90E0F4
S11304000197F1F700C00000C39895E39A95F1F7BE
S11304100000DF91CF910C94CF017894C39A2FEF11
S113042087EA91E6215080409040E1F700C0000047
S1130430C398F8940C94CF01CF93DF931F92CDB758
S1130440DEB78FE1898321E0AE014F5F5F4F60E04B
S113045081E00E947D002FEF81EE94E021508040E6
S11304609040E1F700C000000F90DF91CF91089514
S1130470CF93DF931F92CDB7DEB78EE1898321E05E
S1130480AE014F5F5F4F60E081E00E947D002FEF7F
S113049081EE94E0215080409040E1F700C00000DC
S11304A00F90DF91CF910895CF93DF93EC010E94D9
S11304B0CF010E943802CE010E94E8018FE891E04A
S11304C00197F1F700C00000DF91CF910C941C025A
S11304D0CF92DF92EF92FF920F931F93CF93DF930C
S11304E000D000D01F92CDB7DEB7082FF62E1092A1
S11304F0B5001BE081E4E82E92E4D92E23E4C22E59
S11305008091B500813071F0115061F0E982DA8296
S1130510CB82FC820D83CE0101960E9454020E947C
S11305200D02EECF1092B5000F900F900F900F9028
S11305300F90DF91CF911F910F91FF90EF90DF907B
S1130540CF900895CF93C9B3C695C1708091BC0074
S11305508C1741F069B36695617081EF0E9468025F
S1130560C093BC00CF9108958E9A96982FEF89EF8F
S113057090E0215080409040E1F700C00000969A3E
S113058008958E988699FECF869BFECF8699FECFDE
S1130590089528E030E0869BFECF80EA8A95F1F743
S11305A08091B400880F869981608093B400869905
S11305B0FECF2150310979F78091B4000895CF938B
S11305C0DF9300D000D01F92CDB7DEB70E94B402F3
S11305D00E94C1020E94C9028093B8000E94C9020D
S11305E08093B9000E94C9028093B7000E94C90297
S11305F08093BB000E94C9028093BA009091B80016
S11306002091B90030E0290F311D9091B700290FD6
S1130610311D9091BB00290F311D90E02817390737
S113062021F08AE690E00E94680081E4898382E4F4
S11306308A8383E48B838091B7008C838091B80094
S11306408D83CE0101960E9454022FEF85EB95E332
S1130650215080409040E1F700C000000F900F90BF
S11306600F900F900F90DF91CF910895D19AD99860
S113067008959BB382E089278BBB2FEF80E792E03C
S1130680215080409040E1F700C000000895CF93CE
S1130690C9B3C1708091B600C81721F00E94390314
S11306A0C093B600CF9108951F920F920FB60F9288
S11306B011240F931F932F933F934F935F936F9343
S11306C07F938F939F93AF93BF93EF93FF93CF93B6
S11306D0DF93CDB7DEB72A97DEBFCDBF85E0E0E676
S11306E0F0E0DE01169601900D928A95E1F7F894F8
S11306F0C39825E040E050E061E680E00E947D0080
S11307008C01FC018481863181F580E890E00E94AF
S11307106800F8018381803719F40E94DF0225C044
S1130720863621F481E08093B5001FC0813541F401
S11307300E94390389B3869581708093BC0015C0EB
S1130740823579F489B391E4998392E49A8393E4AA
S11307509B8394E49C83869581708D83CE0101965E
S113076002C0CE0106960E94540278942A960FB6CF
S1130770F894DEBF0FBECDBFDF91CF91FF91EF9113
S1130780BF91AF919F918F917F916F915F914F91A5
S11307903F912F911F910F910F900FBE0F901F90BB
S11307A01895D3980895D098D89A0895CF93DF9345
S11307B0CDB7DEB72A970FB6F894DEBF0FBECDBF14
S11307C0B89AC09A0E9458000E94490085E0E5E664
S11307D0F0E0DE01169601900D928A95E1F785E02E
S11307E0E5E6F0E0DE01119601900D928A95E1F7BD
S11307F022E5AE014F5F5F4FBE016A5F7F4F80E02D
S11308000E94D2000E9436030E94D1030E94D303A7
S11308100E9474000E94CF018AE890E00E94680060
S113082089B3869581708093BC0089B3817080936D
S1130830B6000E940D020E9447030E94A202F9CF53
S1070840F894FFCF56
S1130844414243444512121212124572726F7220CD
S11308547769746820636865636B2073756D0A0037
S113086452656365697665640A00576F726B696ED5
S1070874670A00000B
S9030000FC
