S01700006E524634334C303141746D656761312E7372656373
S11300000C942A000C94AF020C9447000C94470003
S11300100C9447000C9447000C9447000C94470040
S11300200C9447000C9447000C9447000C94470030
S11300300C9447000C9447000C9447000C94470020
S11300400C9447000C9447000C9447000C94470010
S11300500C94470011241FBECFE5D4E0DEBFCDBF12
S113006010E0A0E6B0E0E6E4F6E002C005900D92F0
S1130070AC39B107D9F720E0ACE9B0E001C01D927A
S1130080AF3BB207E1F70E9468020C9421030C9481
S1130090000087B3886B87BBBE988DB180658DB92E
S11300A0C49AC39808958FB9779BFECF8FB10895F2
S11300B0899A889810BC87E689B98AB188618AB917
S11300C080B5866880BD08955D9BFECF8CB9089588
S11300D0CF93DF93EC018991882319F00E94640087
S11300E0FACFDF91CF9108958A988BB780648BBF44
S11300F085B7826085BF78940895DF92EF92FF926E
S11301000F931F93CF93DF93D82E862F8A01E22E6D
S1130110F89491E0D91205C0603A19F0613E09F0F3
S1130120805EE5E3EA95F1F70000C498F5E3FA95FB
S1130130F1F700000E94530085E38A95F1F700006F
S1130140E8010CE910E0F12CC8018C5990408E159F
S11301509F05B4F4D11009C08FEF0E945300F80139
S11301608083F5E3FA95F1F706C088810E94530075
S113017085E38A95F1F700000F5F1F4F2196E4CFC6
S1130180C49A78948CE990E0DF91CF911F910F91FC
S1130190FF90EF90DF900895BF92CF92DF92EF929D
S11301A0FF920F931F93CF93DF9300D000D01F9241
S11301B0CDB7DEB7182F6B017A01B22E2FEF81EE87
S11301C094E0215080409040E1F700C0000001E03D
S11301D0010F098321E0AE014F5F5F4F61E081E0D1
S11301E00E947D008FE1898321E0AE014F5F5F4F64
S11301F064E081E00E947D00098321E0AE014F5F4D
S11302005F4F62E081E00E947D0083E0898321E00A
S1130210AE014F5F5F4F63E081E00E947D0081E0AB
S1130220898321E0AE014F5F5F4F65E00E947D004E
S113023087E0898321E0AE014F5F5F4F66E081E094
S11302400E947D0085E08983123009F443C0B8F42C
S1130250112371F1113009F075C025E0A6016BE09E
S113026081E00E947D0025E0A70160E181E00E9419
S11302707D0021E0AE014F5F5F4F62E160C014304A
S113028009F44CC0C8F1153009F05CC025E0A601A2
S11302906FE081E00E947D0025E0A70160E181E03C
S11302A00E947D0021E0AE014F5F5F4F66E147C0D1
S11302B025E0A6016AE081E00E947D0025E0A70117
S11302C060E181E00E947D0021E0AE014F5F5F4F5D
S11302D061E135C025E0A6016CE081E00E947D006B
S11302E025E0A70160E181E00E947D0021E0AE01EC
S11302F04F5F5F4F63E123C025E0A6016DE081E01D
S11303000E947D0025E0A70160E181E00E947D005C
S113031021E0AE014F5F5F4F64E111C025E0A6010B
S11303206EE081E00E947D0025E0A70160E181E0AC
S11303300E947D0021E0AE014F5F5F4F65E181E0E7
S11303400E947D0024E5B21202C08EE101C08FE15B
S1130350898321E0AE014F5F5F4F60E081E00E943E
S11303607D008FEF91EE24E0815090402040E1F732
S113037000C000000F900F900F900F900F90DF912E
S1130380CF911F910F91FF90EF90DF90CF90BF908E
S1130390089585E38A95F1F70000C49885E38A956A
S11303A0F1F7000087E20E94530085E38A95F1F794
S11303B0000080E70E94530085E38A95F1F700006E
S11303C0C49A0895CF93DF93EC0120E0AC0161EE71
S11303D081E00E947D0025E0AE0160EA81E00E9498
S11303E07D0078948FE39CE90197F1F700C0000049
S11303F0C39A87EC90E00197F1F700C00000C3981E
S113040095E39A95F1F70000F894DF91CF910C945D
S1130410C9017894C39A2FEF8BE792E92150804069
S11304209040E1F700C00000C398F8940C94C9010F
S1130430CF93DF931F92CDB7DEB78FE1898321E09D
S1130440AE014F5F5F4F60E081E00E947D002FEFBF
S113045081EE94E0215080409040E1F700C000001C
S11304600F90DF91CF910895CF93DF931F92CDB773
S1130470DEB78EE1898321E0AE014F5F5F4F60E01C
S113048081E00E947D002FEF81EE94E021508040B6
S11304909040E1F700C000000F90DF91CF910895E4
S11304A0CF93C1E0C093BC000E94E2018FE891E0C9
S11304B00197F1F700C000001092BC000E941802DE
S11304C00E9409020E943402C093BC00CF91089597
S11304D0CF93DF93CDB7DEB72F970FB6F894DEBF77
S11304E00FBECDBFB89AC09A0E9458000E9449001E
S11304F085E0E0E6F0E0DE011B9601900D928A951E
S1130500E1F785E0E0E6F0E0DE01169601900D9259
S11305108A95E1F785E0E5E6F0E0DE0111960190C9
S11305200D928A95E1F724E5AE014A5F5F4FBE0163
S1130530655F7F4F80E00E94CC000E9474000E949F
S1130540C901CE0101960E9450022FEF83ED90E382
S1130550215080409040E1F700C00000F2CF1F928C
S11305600F920FB60F9211242F933F934F935F93E3
S11305706F937F938F939F93AF93BF93CF93DF93A7
S1130580EF93FF93F894C3988091BC00811143C00A
S11305904091BD005091BE0025E061E60E947D00BF
S11305A09093BE008093BD000E94C901E091BD00FC
S11305B0F091BE0080818134B9F48AE690E00E9413
S11305C06800C0E0D0E0E091BD00F091BE00EC0F07
S11305D0FD1F80810E9464002196C530D10599F7E2
S11305E08DE00E94640019C080818035B1F482E8F6
S11305F090E00E946800C0E0D0E0E091BD00F0917E
S1130600BE00EC0FFD1F80810E9464002196C5305E
S1130610D10599F7E5CF0E94C9017894FF91EF9134
S1130620DF91CF91BF91AF919F918F917F916F9106
S11306305F914F913F912F910F900FBE0F901F909C
S10906401895F894FFCFA9
S1130646121212121241424344164974277320614E
S1130656746D65676131362073656E64696E673AD9
S11306662000497427732061746D656761333238DD
S10F0676702073656E64696E673A2000A2
S9030000FC
